:04000000BEEF08F057
:071000000074657374000029
:10100800026E8C9691CF01F00F0E01160250F00B74
:101018000110916E8C84140EE82EFED700D08C94AB
:1010280000D000D000D00238F00B026E91CF01F052
:101038000F0E01160250F00B0110916E8C84140EE5
:10104800E82EFED700D08C94190E016E580EE82EAB
:10105800FED7012EFCD700D01200026E8C8691CFED
:1010680001F00F0E01160250F00B0110916E8C84E6
:1010780000D000D000D08C9400D000D000D002382E
:10108800F00B026E91CF01F00F0E01160250F00B1B
:101098000110916E8C8400D000D000D08C94D00EBA
:1010A800E82EFED700F012000540E842C00B800988
:1010B80004EC08F003C0F6FF04C0F7FF000EF86E5A
:1010C8000800F55031EC08F0034A042A03C0F6FF83
:1010D80004C0F7FF000EF86E0800F5500009D8A408
:1010E80078EF08F07AEF08F05EEF08F01200000ED3
:1010F8008D6E000E916E000E8C6E000E896E000EC5
:101108008E6E000E8A6E000E8F6E000E8B6E000EB5
:10111800906E966897683F0E926E98689368996883
:10112800946895689A68F00EC1161200B7EC08F03A
:10113800010E066E100E076E06C003F007C004F01D
:10114800000E056E58EC08F09CEF08F000EF00F078
:10115800000EC16E000EC06E000EC36E000EC46E8F
:10116800010EC26E12007BEC08F0C4EC08F0ACEC87
:1011780008F012000A6A096A086A00019AEF08F082
:0A118800020ED36E000E9B6E1200E3
:020000040001F9
:06FFF800A0F4C4FFF8F7BD
:00000001FF
